{
  "_format": "hh-sol-artifact-1",
  "contractName": "DIDRegistry",
  "sourceName": "contracts/DIDRegistry.sol",
  "abi": [
    {
      "inputs": [
        {
          "internalType": "address",
          "name": "user",
          "type": "address"
        }
      ],
      "name": "getDID",
      "outputs": [
        {
          "internalType": "string",
          "name": "",
          "type": "string"
        }
      ],
      "stateMutability": "view",
      "type": "function"
    },
    {
      "inputs": [
        {
          "internalType": "string",
          "name": "didDocument",
          "type": "string"
        }
      ],
      "name": "registerDID",
      "outputs": [],
      "stateMutability": "nonpayable",
      "type": "function"
    }
  ],
  "bytecode": "0x608060405234801561001057600080fd5b50610793806100206000396000f3fe608060405234801561001057600080fd5b50600436106100365760003560e01c8063570810e21461003b578063f64e30b014610057575b600080fd5b61005560048036038101906100509190610300565b610087565b005b610071600480360381019061006c91906103a7565b6100d6565b60405161007e9190610453565b60405180910390f35b806000803373ffffffffffffffffffffffffffffffffffffffff1673ffffffffffffffffffffffffffffffffffffffff16815260200190815260200160002090816100d2919061068b565b5050565b60606000808373ffffffffffffffffffffffffffffffffffffffff1673ffffffffffffffffffffffffffffffffffffffff1681526020019081526020016000208054610121906104a4565b80601f016020809104026020016040519081016040528092919081815260200182805461014d906104a4565b801561019a5780601f1061016f5761010080835404028352916020019161019a565b820191906000526020600020905b81548152906001019060200180831161017d57829003601f168201915b50505050509050919050565b6000604051905090565b600080fd5b600080fd5b600080fd5b600080fd5b6000601f19601f8301169050919050565b7f4e487b7100000000000000000000000000000000000000000000000000000000600052604160045260246000fd5b61020d826101c4565b810181811067ffffffffffffffff8211171561022c5761022b6101d5565b5b80604052505050565b600061023f6101a6565b905061024b8282610204565b919050565b600067ffffffffffffffff82111561026b5761026a6101d5565b5b610274826101c4565b9050602081019050919050565b82818337600083830152505050565b60006102a361029e84610250565b610235565b9050828152602081018484840111156102bf576102be6101bf565b5b6102ca848285610281565b509392505050565b600082601f8301126102e7576102e66101ba565b5b81356102f7848260208601610290565b91505092915050565b600060208284031215610316576103156101b0565b5b600082013567ffffffffffffffff811115610334576103336101b5565b5b610340848285016102d2565b91505092915050565b600073ffffffffffffffffffffffffffffffffffffffff82169050919050565b600061037482610349565b9050919050565b61038481610369565b811461038f57600080fd5b50565b6000813590506103a18161037b565b92915050565b6000602082840312156103bd576103bc6101b0565b5b60006103cb84828501610392565b91505092915050565b600081519050919050565b600082825260208201905092915050565b60005b8381101561040e5780820151818401526020810190506103f3565b60008484015250505050565b6000610425826103d4565b61042f81856103df565b935061043f8185602086016103f0565b610448816101c4565b840191505092915050565b6000602082019050818103600083015261046d818461041a565b905092915050565b7f4e487b7100000000000000000000000000000000000000000000000000000000600052602260045260246000fd5b600060028204905060018216806104bc57607f821691505b6020821081036104cf576104ce610475565b5b50919050565b60008190508160005260206000209050919050565b60006020601f8301049050919050565b600082821b905092915050565b6000600883026105377fffffffffffffffffffffffffffffffffffffffffffffffffffffffffffffffff826104fa565b61054186836104fa565b95508019841693508086168417925050509392505050565b6000819050919050565b6000819050919050565b600061058861058361057e84610559565b610563565b610559565b9050919050565b6000819050919050565b6105a28361056d565b6105b66105ae8261058f565b848454610507565b825550505050565b600090565b6105cb6105be565b6105d6818484610599565b505050565b5b818110156105fa576105ef6000826105c3565b6001810190506105dc565b5050565b601f82111561063f57610610816104d5565b610619846104ea565b81016020851015610628578190505b61063c610634856104ea565b8301826105db565b50505b505050565b600082821c905092915050565b600061066260001984600802610644565b1980831691505092915050565b600061067b8383610651565b9150826002028217905092915050565b610694826103d4565b67ffffffffffffffff8111156106ad576106ac6101d5565b5b6106b782546104a4565b6106c28282856105fe565b600060209050601f8311600181146106f557600084156106e3578287015190505b6106ed858261066f565b865550610755565b601f198416610703866104d5565b60005b8281101561072b57848901518255600182019150602085019450602081019050610706565b868310156107485784890151610744601f891682610651565b8355505b6001600288020188555050505b50505050505056fea2646970667358221220f662ffba61d613293288b4fe1e96238dc823987ca37c4e67dc205349c95300ad64736f6c63430008140033",
  "linkReferences": {},
  "deployedLinkReferences": {}
}